:020000040800F2
:1000000088040120DD010008E5010008E70100087F
:10001000E9010008EB010008ED0100080000000004
:10002000000000000000000000000000EF010008D8
:10003000F101000800000000F3010008F5010008CC
:10004000F7010008F7010008F7010008F7010008B0
:10005000F7010008F7010008F7010008F7010008A0
:10006000F7010008F7010008F7010008F701000890
:10007000F7010008F7010008F7010008F701000880
:10008000F7010008F701000825020008F701000841
:10009000F7010008F7010008F7010008F701000860
:1000A000F7010008F7010008F7010008F701000850
:1000B000F7010008F7010008F7010008F701000840
:1000C000F7010008F7010008F7010008F701000830
:1000D000F7010008F7010008F7010008F701000820
:1000E000F7010008F7010008F7010008F701000810
:1000F000F7010008F7010008F7010008F701000800
:10010000F7010008F7010008F7010008F7010008EF
:10011000BD020008F7010008F7010008F701000818
:10012000F7010008F7010008F7010008F7010008CF
:10013000F7010008F7010008F7010008F7010008BF
:10014000F7010008F7010008F7010008F7010008AF
:10015000F7010008F7010008F7010008F70100089F
:10016000F7010008F7010008F7010008F70100088F
:10017000F7010008F7010008F7010008000000007F
:10018000F7010008F7010008F7010008F70100086F
:10019000F7010008F7010008F7010008F70100085F
:1001A000F7010008F7010008F7010008F70100084F
:1001B000F7010008F7010008F7010008F70100083F
:1001C000F7010008F7010008DFF80CD000F018F87C
:1001D00000480047050600088804012006488047BB
:1001E00006480047FEE7FEE7FEE7FEE7FEE7FEE71C
:1001F000FEE7FEE7FEE7FEE759020008C901000836
:10020000064C074D06E0E06840F0010394E8070063
:1002100098471034AC42F6D3FFF7DAFF38080008ED
:10022000580800080948006809490A4A126841F854
:10023000220008480068401C06490860084600681B
:10024000032801D100200860704700004C220140C3
:100250005C000120040001201448006840F4700094
:10026000124908601248006840F001001049086017
:1002700000200F49083108600D4800680D4908400A
:100280000B4908600C48091D0860081F006820F42D
:100290008020091F0860002005490C3108604FF0DC
:1002A00000600249803908607047000088ED00E076
:1002B00000380240FFFFF6FE1030002411480068AD
:1002C00000F02000E0B10F480830006830380E49D7
:1002D0000E4A126841F822000C480068401C0B4985
:1002E00008600846006803280AD100200860012041
:1002F000074908700748006880F001000549086058
:10030000704700001C4C00406C00012008000120D8
:100310000C0001201404024000B503463C4800686C
:1003200058433C490860084600683B4990FBF1F09F
:100330003A49087037480068374990FBF1F201FBF1
:100340001200374990FBF1F03649087031480068D7
:10035000334990FBF1F201FB1200334990FBF1F0BD
:10036000324908702B4800682F4990FBF1F201FBDD
:10037000120042F2107190FBF1F02D4908702548EF
:10038000006842F2107190FBF1F201FB12004FF491
:100390007A7190FBF1F027490870204800783030DE
:1003A0001E4908701F48007830301E4908701F48E9
:1003B000007830301D4908701D48007830301C49E5
:1003C00008701C48007830301A49087013480078CB
:1003D00000F0F8F81348007800F0F4F813480078BB
:1003E00000F0F0F82E2000F0EDF81148007800F051
:1003F000E9F81048007800F0E5F8202000F0E2F875
:100400002D2000F0DFF8202000F0DCF800BD000017
:100410007800012058000120809698007C0001207F
:1004200040420F007D000120A08601007E000120D7
:100430007F0001208000012000280DDB00BF00BFED
:1004400000F01F02012191404209920002F1E022D6
:10045000C2F8001100BF00BF70470000002000BFBD
:1004600014E00E49095C0E4A1170114609780D4AD4
:10047000116000BF0B490C39096801F08001094A7D
:100480000C3A11600029F5D0411C08B204490978E2
:100490003D29E6D13121024A117070471500012033
:1004A00014000120284C0040002000BF14E00E4939
:1004B000095C0E4A1170114609780D4A116000BF9F
:1004C0000B490C39096801F08001094A0C3A1160A6
:1004D0000029F5D0411C08B2044909783D29E6D12C
:1004E0003121024A117070472D00012014000120B3
:1004F000284C00402E482F490968405C2E4908606E
:100500002E48D0F8080240F080402B492C39086072
:1005100000BF29483438006800F002002749C1F8BC
:1005200000020128F5D0002000E0401C2449884248
:10053000FBDB1F481F490968405C1F4908601F48D2
:10054000D0F8080240F080401B492C39086000BFF9
:1005500019483438006800F002001849C1F8000258
:100560000128F5D0002000E0401C15498842FBDB43
:100570000F4810490968405C0F4908600F48D0F8DF
:10058000080240F080400C492C39086000BF0A483E
:100590003438006800F002000849C1F80002012860
:1005A000F5D0002000E0401C05498842FBDB704785
:1005B0004E000120040001203422014000200140AF
:1005C000400D03000649086000BF05490C39096861
:1005D00001F08001024A0C3A11600029F5D0704701
:1005E000284C004002E008C8121F08C1002AFAD1B6
:1005F00070477047002001E001C1121F002AFBD1A3
:1006000070470000FF207A4908607A48006820F0AF
:10061000406078490860784800687849084376491E
:1006200008600020091D0860081D00687349084320
:10063000714908310860081D0068704908436E4917
:100640000C3108606A481030006840F400206849A6
:100650001031086040F283606949086068480C38CE
:10066000006840F02C0066490C39086008460068B4
:1006700040F0010008603420FFF7DEFE61480068AA
:1006800040F002005F4908605A48006840F40000EA
:10069000584908605B48006A40F008005949086200
:1006A0005448406A40F40041524841625048143076
:1006B000006840F480604E49143108605248534944
:1006C00008605348006840F020005249C1F8040215
:1006D0000846D0F8040240F08070C1F804020846D1
:1006E000D0F8080240F00100C1F808020846D0F82E
:1006F000080240F48060C1F8080247480078444985
:10070000303108601220FFF797FE6FE03948103053
:10071000006800F4005037491031086000284FD0BD
:10072000FFF7E8FE3D4800683C49496808443B49FA
:1007300089680844032190FBF1F039490860FFF70C
:100740008DFE36490868FFF7E7FD34494868FFF732
:10075000E3FD32498868FFF7DFFD0D20FFF732FF28
:100760000A20FFF72FFFFFF79FFE2D480068FFF7D5
:10077000D3FD0D20FFF726FF0A20FFF723FF2948AE
:10078000006840F63541484327490968B1EB401FEE
:1007900008DD19481430006840F4804016491431CF
:1007A000086007E014481430006820F480401249C3
:1007B00014310860002000E0401C1C498842FBDB2B
:1007C0001B480078012811D11A4800686421484369
:1007D0001849496801EB810100EB4100154989681E
:1007E0000844104908600020114908708EE7000095
:1007F000303802400008024000040240014000106E
:100800000C4C004000000240C0FF3F0000140240BA
:1008100004220140002001404E0001205C00012024
:10082000680001201000012058000120400D030045
:100830000C0001206C000120580800080000012075
:1008400084000000E4050008DC08000884000120A2
:1008500004040000F405000800000000000000008F
:1008600000000000000000001E0000003154454D53
:1008700050455241545552412053454E534F5245D5
:1008800053203D200050524F4D4544494F20544580
:100890004D50455241545552412053454E534F52AD
:1008A0004553203D2000090E0F04050607080000EF
:1008B00000000000300000003000000030000000A8
:1008C0000000000030000000300000003000000098
:0C08D000E27D00003030303030000000CD
:04000005080001DD11
:00000001FF
